:100000000C9435000C945D000C945D000C945D0024
:100010000C945D000C945D000C945D000C945D00EC
:100020000C945D000C945D000C945D000C945D00DC
:100030000C945D000C945D000C945D000C945D00CC
:100040000C9443020C945D000C9411020C94EB018F
:100050000C945D000C945D000C945D000C945D00AC
:100060000C945D000C945D008D0211241FBECFEF37
:10007000D8E0DEBFCDBF22E0A8E3B1E001C01D9211
:10008000AA32B207E1F711E0A0E0B1E0E8E2FBE05C
:1000900002C005900D92A833B107D9F710E0C5E36F
:1000A000D0E004C02197FE010E948705C433D10728
:1000B000C9F70E94CC020C9492050C940000CF92D8
:1000C000DF92EF92FF920F931F93CF93DF936C0118
:1000D0007A018B01C0E0D0E0CE15DF0581F0D801B8
:1000E0006D918D01D601ED91FC910190F081E02D93
:1000F000C6010995892B11F02196EECF7E01C7012B
:10010000DF91CF911F910F91FF90EF90DF90CF90F3
:100110000895089580E090E00895FC01538D448D8A
:10012000252F30E0842F90E0821B930B541710F0A2
:10013000CF96089501970895FC01918D828D9817AF
:1001400061F0828DDF01A80FB11D5D968C91928DBB
:100150009F5F9F73928F90E008958FEF9FEF0895B8
:10016000FC01918D828D981731F0828DE80FF11D81
:10017000858D90E008958FEF9FEF0895FC01918D9C
:10018000228D892F90E0805C9F4F821B91098F7395
:100190009927089585E491E00E94BE0021E0892B13
:1001A00009F420E0822F0895FC01848DDF01A80F5F
:1001B000B11DA35ABF4F2C91848D90E001968F738F
:1001C0009927848FA689B7892C93A089B1898C91AE
:1001D000837080648C93938D848D981306C00288FD
:1001E000F389E02D80818F7D80830895EF92FF92C7
:1001F0000F931F93CF93DF93EC0181E0888F9B8D4A
:100200008C8D981305C0E889F989808185FD26C009
:10021000F62E0B8D10E00F5F1F4F0F731127E02E8E
:100220008C8DE8120CC00FB607FCFACFE889F9896B
:10023000808185FFF5CFCE010E94D400F1CF8B8D58
:10024000FE01E80FF11DE35AFF4FF0829FB7F894CB
:100250000B8FEA89FB89808180620AC09FB7F8947E
:10026000EE89FF896083E889F989808183708064E1
:1002700080839FBF81E090E0DF91CF911F910F912C
:10028000FF90EF900895CF93DF93EC01888D882342
:10029000C9F0EA89FB89808185FD05C0A889B989F3
:1002A0008C9186FD0FC00FB607FCF5CF808185FFCE
:1002B000F2CFA889B9898C9185FFEDCFCE010E943C
:1002C000D400E7CFDF91CF91089580E090E0892BB3
:1002D00029F00E94CA0081110C94000008952FB7E4
:1002E000F89460913D0170913E0180913F019091A1
:1002F00040012FBF08958BB18F738BB95D9A08951C
:100300008BB18F798BB95F9A08955C985B9A089549
:100310005B985C9A08956115710579F0FB01019075
:100320000020E9F73197AF01461B570BDC01ED9137
:10033000FC910280F381E02D099480E090E0089523
:100340008F929F92AF92BF92EF92FF920F931F9363
:10035000CF93DF93CDB7DEB7A1970FB6F894DEBF8A
:100360000FBECDBF7C01FA01CB0119A2223008F4E7
:100370002AE08E010F5D1F4F822E912CA12CB12CF3
:10038000BF01A50194010E946505F901CA01015050
:1003900011096A3014F4605D01C0695CD8016C9386
:1003A000232B242B252B61F7B801C7010E948B0159
:1003B000A1960FB6F894DEBF0FBECDBFDF91CF91EF
:1003C0001F910F91FF90EF90BF90AF909F908F90F3
:1003D00008950E948D051F920F920FB60F9211245F
:1003E0002F933F934F935F936F937F938F939F933D
:1003F000AF93BF93EF93FF9385E491E00E94D40005
:10040000FF91EF91BF91AF919F918F917F916F91EC
:100410005F914F913F912F910F900FBE0F901F90C2
:1004200018951F920F920FB60F9211242F938F934E
:100430009F93EF93FF93E0915501F09156018081D6
:10044000E0915B01F0915C0182FD12C0908180918E
:100450005E018F5F8F7320915F01821751F0E091F1
:100460005E01F0E0EB5BFE4F958F80935E0101C073
:100470008081FF91EF919F918F912F910F900FBEEF
:100480000F901F9018951F920F920FB60F92112484
:100490002F933F938F939F93AF93BF9380913D0191
:1004A00090913E01A0913F01B091400130913C01FB
:1004B00023E0230F2D3720F40196A11DB11D05C0A7
:1004C00026E8230F0296A11DB11D20933C018093C5
:1004D0003D0190933E01A0933F01B0934001809174
:1004E000380190913901A0913A01B0913B010196F8
:1004F000A11DB11D8093380190933901A0933A0159
:10050000B0933B01BF91AF919F918F913F912F91FC
:100510000F900FBE0F901F901895E5E4F1E0138245
:10052000128288EE93E0A0E0B0E084839583A683F6
:10053000B78384E091E09183808385EC90E0958798
:10054000848784EC90E09787868780EC90E0918B9D
:10055000808B81EC90E0938B828B82EC90E0958B8A
:10056000848B86EC90E0978B868B118E128E138E87
:10057000148EE2EEF1E01682178210861186128642
:1005800013861486158616861786108A118A128A93
:10059000138A148A158A0895789484B5826084BD7C
:1005A00084B5816084BD85B5826085BD85B5816077
:1005B00085BD80916E00816080936E0010928100F5
:1005C00080918100826080938100809181008160B0
:1005D0008093810080918000816080938000809171
:1005E000B10084608093B1008091B00081608093FD
:1005F000B00080917A00846080937A0080917A00C4
:10060000826080937A0080917A00816080937A0082
:1006100080917A00806880937A001092C1001092D5
:10062000260210922702109228021092290210929C
:10063000E4011092E5011092E6011092E7010E9498
:100640006F016B017C014B015C0128EB820E2BE0FA
:10065000921EA11CB11C0E946F016C157D058E05B8
:100660009F0528F086169706A806B906A0F785E428
:1006700091E09093250280932402E0915501F0913E
:10068000560182E08083E0915101F0915201108285
:10069000E0915301F091540180E1808310925D015B
:1006A000E0915901F0915A0186E08083E091570171
:1006B000F0915801808180618083E0915701F09131
:1006C0005801808188608083E0915701F091580142
:1006D000808180688083E0915701F091580180818A
:1006E0008F7D80830E946F016093E4017093E50128
:1006F0008093E6019093E70162E171E0809124022A
:10070000909125020E948B010E946F016B017C0178
:100710004B015C013AE0830E911CA11CB11C0E94AC
:100720006F016C157D058E059F0528F086169706CE
:10073000A806B906A0F781E08093F80188EF8AB98E
:100740001BB80E9480010E9488010E946F01672BE4
:10075000682B692B41F40E946F016230710581059D
:10076000910508F414C10E946F01C0904101D0901E
:100770004201E0904301F09044016C157D058E0527
:100780009F0540F4609341017093420180934301BF
:1007900090934401C0904101D0904201E090430108
:1007A000F09044019B01AC012C193D094E095F09F1
:1007B00069017A013AEFC316D104E104F10408F4A7
:1007C000E6C060934101709342018093430190938E
:1007D000440184EF91E0A0E0B0E08093F0019093B9
:1007E000F101A093F201B093F3011092F401109281
:1007F000F5011092F6011092F7018091E8019091B5
:10080000E901A091EA01B091EB018093EC01909392
:10081000ED01A093EE01B093EF010E946F01609390
:10082000E8017093E9018093EA019093EB010E9443
:100830006F016093E4017093E5018093E60190936A
:10084000E7010E946F016B017C0164E271E080911D
:100850002402909125020E948B012AE041E050E0A1
:1008600060E070E080912402909125020E94A00136
:100870006BE271E080912402909125020E948B012D
:100880002AE0B701A60180912402909125020E94DE
:10089000A0016DE271E080912402909125020E94F6
:1008A0008B018091E8019091E901A091EA01B0915A
:1008B000EB01B701A601481B590B6A0B7B0B2AE021
:1008C00080912402909125020E94A0016DE271E0C6
:1008D00080912402909125020E948B014091E801B1
:1008E0005091E9016091EA017091EB018091EC0176
:1008F0009091ED01A091EE01B091EF01481B590BD1
:100900006A0B7B0B2AE080912402909125020E94C1
:10091000A0016FE271E080912402909125020E9473
:100920008B010E946F01AB01BC012AE0809124027F
:10093000909125020E94A001C0912402D09125022D
:1009400061E371E0CE010E948B0161E271E0CE01B2
:100950000E948B010E946F016B017C014B015C01C5
:1009600045E0840E911CA11CB11C0E946F016C1506
:100970007D058E059F0508F0A1C00E946F01609360
:10098000E8017093E9018093EA019093EB014A99A1
:10099000FECF0E9480010E9485015FEF83ED90E30E
:1009A000515080409040E1F700C000000E9480015B
:1009B0008BB1877E8BB9C3E0D0E02FEF39E648E1F9
:1009C000215030404040E1F700C000008BB1877EED
:1009D0008BB95FEF89E698E1515080409040E1F794
:1009E00000C000000E948501219739F72FEF33EDF9
:1009F00040E3215030404040E1F700C000005D98E6
:100A00008BB1806C8BB90E9488015FEF83ED90E31E
:100A1000515080409040E1F700C000000E947B01EF
:100A20000E9488012FEF33ED40E3215030404040D9
:100A3000E1F700C00000C3E0D0E05FEF89E698E195
:100A4000515080409040E1F700C000008BB18F71A1
:100A50008BB92FEF39E648E1215030404040E1F7B3
:100A600000C000000E947B01219739F70E94880195
:100A70005FEF83ED90E3515080409040E1F700C07C
:100A800000008BB18F758BB95E9A0E9488012FEFA1
:100A900033ED40E3215030404040E1F700C000001A
:100AA0000E9480010E9488015FEF83ED90E3515026
:100AB00080409040E1F700C0000069CF861697069D
:100AC000A806B90608F051CF58CFA1E21A2EAA1BEA
:100AD000BB1BFD010DC0AA1FBB1FEE1FFF1FA217EE
:100AE000B307E407F50720F0A21BB30BE40BF50BEB
:100AF000661F771F881F991F1A9469F76095709574
:100B0000809590959B01AC01BD01CF010895EE0F3A
:100B1000FF1F0590F491E02D099481E090E0F89496
:080B20000C949205F894FFCF3C
:100B280000000000F6005F008D004301BE009C003D
:100B3800B000564D4450565F317C315F564D44509D
:100B4800560D0A00564D4450455F003A323A007C33
:080B5800005F564D44504500BA
:00000001FF
